{
  "contractName": "CourseMarketplace",
  "abi": [
    {
      "inputs": [],
      "stateMutability": "nonpayable",
      "type": "constructor"
    },
    {
      "inputs": [],
      "name": "CourseHasOwner",
      "type": "error"
    },
    {
      "inputs": [],
      "name": "CourseIsNotCreated",
      "type": "error"
    },
    {
      "inputs": [],
      "name": "InvalidState",
      "type": "error"
    },
    {
      "inputs": [],
      "name": "OnlyOwner",
      "type": "error"
    },
    {
      "inputs": [],
      "name": "SenderIsNotCourseOwner",
      "type": "error"
    },
    {
      "inputs": [
        {
          "internalType": "bytes16",
          "name": "courseId",
          "type": "bytes16"
        },
        {
          "internalType": "bytes32",
          "name": "proof",
          "type": "bytes32"
        }
      ],
      "name": "purchaseCourse",
      "outputs": [],
      "stateMutability": "payable",
      "type": "function",
      "payable": true
    },
    {
      "inputs": [
        {
          "internalType": "address",
          "name": "hash",
          "type": "address"
        },
        {
          "internalType": "uint256",
          "name": "p",
          "type": "uint256"
        }
      ],
      "name": "setPoints",
      "outputs": [],
      "stateMutability": "nonpayable",
      "type": "function"
    },
    {
      "inputs": [
        {
          "internalType": "address",
          "name": "hash",
          "type": "address"
        }
      ],
      "name": "getPoints",
      "outputs": [
        {
          "internalType": "uint256",
          "name": "",
          "type": "uint256"
        }
      ],
      "stateMutability": "view",
      "type": "function",
      "constant": true
    },
    {
      "inputs": [
        {
          "internalType": "address",
          "name": "newOwner",
          "type": "address"
        }
      ],
      "name": "transferOwnership",
      "outputs": [],
      "stateMutability": "nonpayable",
      "type": "function"
    },
    {
      "inputs": [],
      "name": "getCourseCount",
      "outputs": [
        {
          "internalType": "uint256",
          "name": "",
          "type": "uint256"
        }
      ],
      "stateMutability": "view",
      "type": "function",
      "constant": true
    },
    {
      "inputs": [
        {
          "internalType": "uint256",
          "name": "index",
          "type": "uint256"
        }
      ],
      "name": "getCourseHashAtIndex",
      "outputs": [
        {
          "internalType": "bytes32",
          "name": "",
          "type": "bytes32"
        }
      ],
      "stateMutability": "view",
      "type": "function",
      "constant": true
    },
    {
      "inputs": [
        {
          "internalType": "bytes32",
          "name": "courseHash",
          "type": "bytes32"
        }
      ],
      "name": "getCourseByHash",
      "outputs": [
        {
          "components": [
            {
              "internalType": "uint256",
              "name": "id",
              "type": "uint256"
            },
            {
              "internalType": "uint256",
              "name": "price",
              "type": "uint256"
            },
            {
              "internalType": "bytes32",
              "name": "proof",
              "type": "bytes32"
            },
            {
              "internalType": "address",
              "name": "owner",
              "type": "address"
            },
            {
              "internalType": "enum CourseMarketplace.State",
              "name": "state",
              "type": "uint8"
            }
          ],
          "internalType": "struct CourseMarketplace.Course",
          "name": "",
          "type": "tuple"
        }
      ],
      "stateMutability": "view",
      "type": "function",
      "constant": true
    },
    {
      "inputs": [
        {
          "internalType": "bytes32",
          "name": "courseHash",
          "type": "bytes32"
        }
      ],
      "name": "repurchaseCourse",
      "outputs": [],
      "stateMutability": "payable",
      "type": "function",
      "payable": true
    },
    {
      "inputs": [
        {
          "internalType": "bytes32",
          "name": "courseHash",
          "type": "bytes32"
        }
      ],
      "name": "activateCourse",
      "outputs": [],
      "stateMutability": "nonpayable",
      "type": "function"
    },
    {
      "inputs": [
        {
          "internalType": "bytes32",
          "name": "courseHash",
          "type": "bytes32"
        }
      ],
      "name": "deactivateCourse",
      "outputs": [],
      "stateMutability": "nonpayable",
      "type": "function"
    },
    {
      "inputs": [],
      "name": "getContractOwner",
      "outputs": [
        {
          "internalType": "address",
          "name": "",
          "type": "address"
        }
      ],
      "stateMutability": "view",
      "type": "function",
      "constant": true
    }
  ],
  "bytecode": "0x608060405234801561001057600080fd5b506100203361002560201b60201c565b610069565b80600460006101000a81548173ffffffffffffffffffffffffffffffffffffffff021916908373ffffffffffffffffffffffffffffffffffffffff16021790555050565b611538806100786000396000f3fe60806040526004361061009c5760003560e01c80636d11290b116100645780636d11290b14610177578063935d7e6d146101b457806396cfda06146101dd578063d76821cb14610208578063ee204abb14610224578063f2fde38b146102615761009c565b806339262572146100a15780633bc007a8146100ca578063442890d5146100f35780636136e1eb1461011e57806362e4e6ac1461013a575b600080fd5b3480156100ad57600080fd5b506100c860048036038101906100c39190611017565b61028a565b005b3480156100d657600080fd5b506100f160048036038101906100ec9190610f9f565b61045e565b005b3480156100ff57600080fd5b506101086104f4565b60405161011591906111ef565b60405180910390f35b61013860048036038101906101339190611017565b61051e565b005b34801561014657600080fd5b50610161600480360381019061015c9190611017565b6106cd565b60405161016e9190611245565b60405180910390f35b34801561018357600080fd5b5061019e60048036038101906101999190611040565b6107f5565b6040516101ab919061120a565b60405180910390f35b3480156101c057600080fd5b506101db60048036038101906101d69190611017565b610812565b005b3480156101e957600080fd5b506101f2610ac5565b6040516101ff9190611260565b60405180910390f35b610222600480360381019061021d9190610fdb565b610acf565b005b34801561023057600080fd5b5061024b60048036038101906102469190610f76565b610cbc565b6040516102589190611260565b60405180910390f35b34801561026d57600080fd5b5061028860048036038101906102839190610f76565b610d09565b005b6102926104f4565b73ffffffffffffffffffffffffffffffffffffffff163373ffffffffffffffffffffffffffffffffffffffff16146102f6576040517f5fc483c500000000000000000000000000000000000000000000000000000000815260040160405180910390fd5b6102ff81610d81565b610335576040517f4db0c48300000000000000000000000000000000000000000000000000000000815260040160405180910390fd5b600060016000838152602001908152602001600020905060006002811115610386577f4e487b7100000000000000000000000000000000000000000000000000000000600052602160045260246000fd5b8160030160149054906101000a900460ff1660028111156103d0577f4e487b7100000000000000000000000000000000000000000000000000000000600052602160045260246000fd5b14610407576040517fbaf3f0f700000000000000000000000000000000000000000000000000000000815260040160405180910390fd5b60018160030160146101000a81548160ff02191690836002811115610455577f4e487b7100000000000000000000000000000000000000000000000000000000600052602160045260246000fd5b02179055505050565b6000816000808573ffffffffffffffffffffffffffffffffffffffff1673ffffffffffffffffffffffffffffffffffffffff168152602001908152602001600020546104aa9190611297565b9050806000808573ffffffffffffffffffffffffffffffffffffffff1673ffffffffffffffffffffffffffffffffffffffff16815260200190815260200160002081905550505050565b6000600460009054906101000a900473ffffffffffffffffffffffffffffffffffffffff16905090565b61052781610d81565b61055d576040517f4db0c48300000000000000000000000000000000000000000000000000000000815260040160405180910390fd5b61056681610df0565b61059c576040517fcce31cc400000000000000000000000000000000000000000000000000000000815260040160405180910390fd5b60006001600083815260200190815260200160002090506002808111156105ec577f4e487b7100000000000000000000000000000000000000000000000000000000600052602160045260246000fd5b8160030160149054906101000a900460ff166002811115610636577f4e487b7100000000000000000000000000000000000000000000000000000000600052602160045260246000fd5b1461066d576040517fbaf3f0f700000000000000000000000000000000000000000000000000000000815260040160405180910390fd5b60008160030160146101000a81548160ff021916908360028111156106bb577f4e487b7100000000000000000000000000000000000000000000000000000000600052602160045260246000fd5b02179055503481600101819055505050565b6106d5610ea2565b600160008381526020019081526020016000206040518060a00160405290816000820154815260200160018201548152602001600282015481526020016003820160009054906101000a900473ffffffffffffffffffffffffffffffffffffffff1673ffffffffffffffffffffffffffffffffffffffff1673ffffffffffffffffffffffffffffffffffffffff1681526020016003820160149054906101000a900460ff1660028111156107b2577f4e487b7100000000000000000000000000000000000000000000000000000000600052602160045260246000fd5b60028111156107ea577f4e487b7100000000000000000000000000000000000000000000000000000000600052602160045260246000fd5b815250509050919050565b600060026000838152602001908152602001600020549050919050565b61081a6104f4565b73ffffffffffffffffffffffffffffffffffffffff163373ffffffffffffffffffffffffffffffffffffffff161461087e576040517f5fc483c500000000000000000000000000000000000000000000000000000000815260040160405180910390fd5b61088781610d81565b6108bd576040517f4db0c48300000000000000000000000000000000000000000000000000000000815260040160405180910390fd5b60006001600083815260200190815260200160002090506000600281111561090e577f4e487b7100000000000000000000000000000000000000000000000000000000600052602160045260246000fd5b8160030160149054906101000a900460ff166002811115610958577f4e487b7100000000000000000000000000000000000000000000000000000000600052602160045260246000fd5b1461098f576040517fbaf3f0f700000000000000000000000000000000000000000000000000000000815260040160405180910390fd5b60008160030160009054906101000a900473ffffffffffffffffffffffffffffffffffffffff1673ffffffffffffffffffffffffffffffffffffffff1682600101546040516109dd906111da565b60006040518083038185875af1925050503d8060008114610a1a576040519150601f19603f3d011682016040523d82523d6000602084013e610a1f565b606091505b5050905080610a63576040517f08c379a0000000000000000000000000000000000000000000000000000000008152600401610a5a90611225565b60405180910390fd5b60028260030160146101000a81548160ff02191690836002811115610ab1577f4e487b7100000000000000000000000000000000000000000000000000000000600052602160045260246000fd5b021790555060008260010181905550505050565b6000600354905090565b60008233604051602001610ae49291906111ae565b604051602081830303815290604052805190602001209050610b0581610df0565b15610b3c576040517fb0fc2d9700000000000000000000000000000000000000000000000000000000815260040160405180910390fd5b600060036000815480929190610b5190611384565b9190505590508160026000838152602001908152602001600020819055506040518060a001604052808281526020013481526020018481526020013373ffffffffffffffffffffffffffffffffffffffff16815260200160006002811115610be2577f4e487b7100000000000000000000000000000000000000000000000000000000600052602160045260246000fd5b8152506001600084815260200190815260200160002060008201518160000155602082015181600101556040820151816002015560608201518160030160006101000a81548173ffffffffffffffffffffffffffffffffffffffff021916908373ffffffffffffffffffffffffffffffffffffffff16021790555060808201518160030160146101000a81548160ff02191690836002811115610cae577f4e487b7100000000000000000000000000000000000000000000000000000000600052602160045260246000fd5b021790555090505050505050565b6000806000808473ffffffffffffffffffffffffffffffffffffffff1673ffffffffffffffffffffffffffffffffffffffff16815260200190815260200160002054905080915050919050565b610d116104f4565b73ffffffffffffffffffffffffffffffffffffffff163373ffffffffffffffffffffffffffffffffffffffff1614610d75576040517f5fc483c500000000000000000000000000000000000000000000000000000000815260040160405180910390fd5b610d7e81610e5e565b50565b60008073ffffffffffffffffffffffffffffffffffffffff166001600084815260200190815260200160002060030160009054906101000a900473ffffffffffffffffffffffffffffffffffffffff1673ffffffffffffffffffffffffffffffffffffffff1614159050919050565b60003373ffffffffffffffffffffffffffffffffffffffff166001600084815260200190815260200160002060030160009054906101000a900473ffffffffffffffffffffffffffffffffffffffff1673ffffffffffffffffffffffffffffffffffffffff16149050919050565b80600460006101000a81548173ffffffffffffffffffffffffffffffffffffffff021916908373ffffffffffffffffffffffffffffffffffffffff16021790555050565b6040518060a00160405280600081526020016000815260200160008019168152602001600073ffffffffffffffffffffffffffffffffffffffff16815260200160006002811115610f1c577f4e487b7100000000000000000000000000000000000000000000000000000000600052602160045260246000fd5b81525090565b600081359050610f31816114a6565b92915050565b600081359050610f46816114bd565b92915050565b600081359050610f5b816114d4565b92915050565b600081359050610f70816114eb565b92915050565b600060208284031215610f8857600080fd5b6000610f9684828501610f22565b91505092915050565b60008060408385031215610fb257600080fd5b6000610fc085828601610f22565b9250506020610fd185828601610f61565b9150509250929050565b60008060408385031215610fee57600080fd5b6000610ffc85828601610f37565b925050602061100d85828601610f4c565b9150509250929050565b60006020828403121561102957600080fd5b600061103784828501610f4c565b91505092915050565b60006020828403121561105257600080fd5b600061106084828501610f61565b91505092915050565b611072816112ed565b82525050565b611081816112ed565b82525050565b611098611093826112ed565b6113cd565b82525050565b6110af6110aa826112ff565b6113df565b82525050565b6110be8161132b565b82525050565b6110cd8161132b565b82525050565b6110dc81611372565b82525050565b60006110ef601083611286565b91506110fa82611466565b602082019050919050565b600061111260008361127b565b915061111d8261148f565b600082019050919050565b60a08201600082015161113e6000850182611190565b5060208201516111516020850182611190565b50604082015161116460408501826110b5565b5060608201516111776060850182611069565b50608082015161118a60808501826110d3565b50505050565b61119981611368565b82525050565b6111a881611368565b82525050565b60006111ba828561109e565b6010820191506111ca8284611087565b6014820191508190509392505050565b60006111e582611105565b9150819050919050565b60006020820190506112046000830184611078565b92915050565b600060208201905061121f60008301846110c4565b92915050565b6000602082019050818103600083015261123e816110e2565b9050919050565b600060a08201905061125a6000830184611128565b92915050565b6000602082019050611275600083018461119f565b92915050565b600081905092915050565b600082825260208201905092915050565b60006112a282611368565b91506112ad83611368565b9250827fffffffffffffffffffffffffffffffffffffffffffffffffffffffffffffffff038211156112e2576112e16113fb565b5b828201905092915050565b60006112f882611348565b9050919050565b60007fffffffffffffffffffffffffffffffff0000000000000000000000000000000082169050919050565b6000819050919050565b600081905061134382611492565b919050565b600073ffffffffffffffffffffffffffffffffffffffff82169050919050565b6000819050919050565b600061137d82611335565b9050919050565b600061138f82611368565b91507fffffffffffffffffffffffffffffffffffffffffffffffffffffffffffffffff8214156113c2576113c16113fb565b5b600182019050919050565b60006113d8826113e9565b9050919050565b6000819050919050565b60006113f482611459565b9050919050565b7f4e487b7100000000000000000000000000000000000000000000000000000000600052601160045260246000fd5b7f4e487b7100000000000000000000000000000000000000000000000000000000600052602160045260246000fd5b60008160601b9050919050565b7f5472616e73666572206661696c65642100000000000000000000000000000000600082015250565b50565b600381106114a3576114a261142a565b5b50565b6114af816112ed565b81146114ba57600080fd5b50565b6114c6816112ff565b81146114d157600080fd5b50565b6114dd8161132b565b81146114e857600080fd5b50565b6114f481611368565b81146114ff57600080fd5b5056fea2646970667358221220012c4261c2900beb89465f3a08b5f5ecf81ff0cf3c960742b1cb466a0cec011964736f6c63430008040033",
  "immutableReferences": {},
  "source": "// SPDX-License-Identifier: MIT\r\npragma solidity >=0.4.22 <0.9.0;\r\n\r\ncontract CourseMarketplace {\r\n    enum State {\r\n        Purchased,\r\n        Activated,\r\n        Deactivated\r\n    }\r\n\r\n    struct Course {\r\n        uint id; //32\r\n        uint price; //32\r\n        bytes32 proof; //32\r\n        address owner; //20\r\n        State state; //1\r\n    }\r\n    mapping(address => uint256) private points;\r\n    mapping(bytes32 => Course) private ownedCourses;\r\n    mapping(uint => bytes32) private ownedCourseHash;\r\n\r\n    /// Course has already a Owner!\r\n    error CourseHasOwner();\r\n\r\n    /// Sender is not course owner!\r\n    error SenderIsNotCourseOwner();\r\n\r\n    /// Only owner has an access!\r\n    error OnlyOwner();\r\n\r\n    /// Course has invalid state!\r\n    error InvalidState();\r\n\r\n    /// Course is not created!\r\n    error CourseIsNotCreated();\r\n\r\n    modifier onlyOwner() {\r\n        if (msg.sender != getContractOwner()) {\r\n            revert OnlyOwner();\r\n        }\r\n        _;\r\n    }\r\n\r\n    uint private totalOwnedCourses;\r\n    address payable private owner;\r\n\r\n    constructor() {\r\n        setContractOwner(msg.sender);\r\n    }\r\n\r\n    function purchaseCourse(bytes16 courseId, bytes32 proof) external payable {\r\n        bytes32 courseHash = keccak256(abi.encodePacked(courseId, msg.sender));\r\n        if (hasCourseOwnership(courseHash)) {\r\n            revert CourseHasOwner();\r\n        }\r\n        uint id = totalOwnedCourses++;\r\n        ownedCourseHash[id] = courseHash;\r\n        ownedCourses[courseHash] = Course({\r\n            id: id,\r\n            price: msg.value,\r\n            proof: proof,\r\n            owner: msg.sender,\r\n            state: State.Purchased\r\n        });\r\n    }\r\n\r\n    function setPoints(address hash, uint256 p) external {\r\n        uint256 point = points[hash] + p;\r\n        points[hash] = point;\r\n    }\r\n\r\n    function getPoints(address hash) external view returns (uint256) {\r\n        uint256 point = points[hash];\r\n        return point;\r\n    }\r\n\r\n    function transferOwnership(address newOwner) external onlyOwner {\r\n        setContractOwner(newOwner);\r\n    }\r\n\r\n    function getCourseCount() external view returns (uint) {\r\n        return totalOwnedCourses;\r\n    }\r\n\r\n    function getCourseHashAtIndex(uint index) external view returns (bytes32) {\r\n        return ownedCourseHash[index];\r\n    }\r\n\r\n    function getCourseByHash(\r\n        bytes32 courseHash\r\n    ) external view returns (Course memory) {\r\n        return ownedCourses[courseHash];\r\n    }\r\n\r\n    function repurchaseCourse(bytes32 courseHash) external payable {\r\n        if (!isCourseCreated(courseHash)) {\r\n            revert CourseIsNotCreated();\r\n        }\r\n\r\n        if (!hasCourseOwnership(courseHash)) {\r\n            revert SenderIsNotCourseOwner();\r\n        }\r\n\r\n        Course storage course = ownedCourses[courseHash];\r\n\r\n        if (course.state != State.Deactivated) {\r\n            revert InvalidState();\r\n        }\r\n\r\n        course.state = State.Purchased;\r\n        course.price = msg.value;\r\n    }\r\n\r\n    function activateCourse(bytes32 courseHash) external onlyOwner {\r\n        if (!isCourseCreated(courseHash)) {\r\n            revert CourseIsNotCreated();\r\n        }\r\n\r\n        Course storage course = ownedCourses[courseHash];\r\n\r\n        if (course.state != State.Purchased) {\r\n            revert InvalidState();\r\n        }\r\n\r\n        course.state = State.Activated;\r\n    }\r\n\r\n    function deactivateCourse(bytes32 courseHash) external onlyOwner {\r\n        if (!isCourseCreated(courseHash)) {\r\n            revert CourseIsNotCreated();\r\n        }\r\n\r\n        Course storage course = ownedCourses[courseHash];\r\n\r\n        if (course.state != State.Purchased) {\r\n            revert InvalidState();\r\n        }\r\n\r\n        (bool success, ) = course.owner.call{value: course.price}(\"\");\r\n        require(success, \"Transfer failed!\");\r\n\r\n        course.state = State.Deactivated;\r\n        course.price = 0;\r\n    }\r\n\r\n    function getContractOwner() public view returns (address) {\r\n        return owner;\r\n    }\r\n\r\n    function setContractOwner(address newOwner) private {\r\n        owner = payable(newOwner);\r\n    }\r\n\r\n    function isCourseCreated(bytes32 courseHash) private view returns (bool) {\r\n        return\r\n            ownedCourses[courseHash].owner !=\r\n            0x0000000000000000000000000000000000000000;\r\n    }\r\n\r\n    function hasCourseOwnership(\r\n        bytes32 courseHash\r\n    ) private view returns (bool) {\r\n        return ownedCourses[courseHash].owner == msg.sender;\r\n    }\r\n}\r\n",
  "sourcePath": "E:\\Original2\\contracts\\CourseMarketplace.sol",
  "compiler": {
    "name": "solc",
    "version": "0.8.4+commit.c7e474f2.Emscripten.clang"
  },
  "schemaVersion": "3.4.13",
  "updatedAt": "2023-05-05T09:47:04.004Z",
  "networkType": "ethereum",
  "devdoc": {
    "kind": "dev",
    "methods": {},
    "version": 1
  },
  "userdoc": {
    "errors": {
      "CourseHasOwner()": [
        {
          "notice": "Course has already a Owner!"
        }
      ],
      "CourseIsNotCreated()": [
        {
          "notice": "Course is not created!"
        }
      ],
      "InvalidState()": [
        {
          "notice": "Course has invalid state!"
        }
      ],
      "OnlyOwner()": [
        {
          "notice": "Only owner has an access!"
        }
      ],
      "SenderIsNotCourseOwner()": [
        {
          "notice": "Sender is not course owner!"
        }
      ]
    },
    "kind": "user",
    "methods": {},
    "version": 1
  }
}